{
  "contractName": "Greeter",
  "abi": [
    {
      "constant": false,
      "inputs": [],
      "name": "kill",
      "outputs": [],
      "payable": false,
      "stateMutability": "nonpayable",
      "type": "function"
    },
    {
      "inputs": [
        {
          "name": "_greeting",
          "type": "string"
        }
      ],
      "payable": false,
      "stateMutability": "nonpayable",
      "type": "constructor"
    },
    {
      "anonymous": false,
      "inputs": [
        {
          "indexed": true,
          "name": "oldGreetingIdx",
          "type": "string"
        },
        {
          "indexed": true,
          "name": "newGreetingIdx",
          "type": "string"
        },
        {
          "indexed": false,
          "name": "oldGreeting",
          "type": "string"
        },
        {
          "indexed": false,
          "name": "newGreeting",
          "type": "string"
        }
      ],
      "name": "Modified",
      "type": "event"
    },
    {
      "constant": false,
      "inputs": [
        {
          "name": "_greeting",
          "type": "string"
        }
      ],
      "name": "newGreeting",
      "outputs": [],
      "payable": false,
      "stateMutability": "nonpayable",
      "type": "function"
    },
    {
      "constant": true,
      "inputs": [],
      "name": "greet",
      "outputs": [
        {
          "name": "",
          "type": "string"
        }
      ],
      "payable": false,
      "stateMutability": "view",
      "type": "function"
    }
  ],
  "bytecode": "0x608060405234801561001057600080fd5b506040516106a53803806106a583398101806040528101908080518201929190505050336000806101000a81548173ffffffffffffffffffffffffffffffffffffffff021916908373ffffffffffffffffffffffffffffffffffffffff1602179055508060019080519060200190610089929190610090565b5050610135565b828054600181600116156101000203166002900490600052602060002090601f016020900481019282601f106100d157805160ff19168380011785556100ff565b828001600101855582156100ff579182015b828111156100fe5782518255916020019190600101906100e3565b5b50905061010c9190610110565b5090565b61013291905b8082111561012e576000816000905550600101610116565b5090565b90565b610561806101446000396000f30060806040526004361061003a5760003560e01c63ffffffff16806341c0e1b51461003f5780634ac0d66e14610056578063cfae3217146100bf575b600080fd5b34801561004b57600080fd5b5061005461014f565b005b34801561006257600080fd5b506100bd600480360381019080803590602001908201803590602001908080601f01602080910402602001604051908101604052809392919081815260200183838082843782019150505050505091929192905050506101e0565b005b3480156100cb57600080fd5b506100d46103ee565b6040518080602001828103825283818151815260200191508051906020019080838360005b838110156101145780820151818401526020810190506100f9565b50505050905090810190601f1680156101415780820380516001836020036101000a031916815260200191505b509250505060405180910390f35b6000809054906101000a900473ffffffffffffffffffffffffffffffffffffffff1673ffffffffffffffffffffffffffffffffffffffff163373ffffffffffffffffffffffffffffffffffffffff1614156101de576000809054906101000a900473ffffffffffffffffffffffffffffffffffffffff1673ffffffffffffffffffffffffffffffffffffffff16ff5b565b806040518082805190602001908083835b60208310151561021657805182526020820191506020810190506020830392506101f1565b6001836020036101000a0380198251168184511680821785525050505050509050019150506040518091039020600160405180828054600181600116156101000203166002900480156102a05780601f1061027e5761010080835404028352918201916102a0565b820191906000526020600020905b81548152906001019060200180831161028c575b505091505060405180910390207f047dcd1aa8b77b0b943642129c767533eeacd700c7c1eab092b8ce05d2b2faf560018460405180806020018060200183810383528581815460018160011615610100020316600290048152602001915080546001816001161561010002031660029004801561035e5780601f106103335761010080835404028352916020019161035e565b820191906000526020600020905b81548152906001019060200180831161034157829003601f168201915b5050838103825284818151815260200191508051906020019080838360005b8381101561039857808201518184015260208101905061037d565b50505050905090810190601f1680156103c55780820380516001836020036101000a031916815260200191505b5094505050505060405180910390a380600190805190602001906103ea929190610490565b5050565b606060018054600181600116156101000203166002900480601f0160208091040260200160405190810160405280929190818152602001828054600181600116156101000203166002900480156104865780601f1061045b57610100808354040283529160200191610486565b820191906000526020600020905b81548152906001019060200180831161046957829003601f168201915b5050505050905090565b828054600181600116156101000203166002900490600052602060002090601f016020900481019282601f106104d157805160ff19168380011785556104ff565b828001600101855582156104ff579182015b828111156104fe5782518255916020019190600101906104e3565b5b50905061050c9190610510565b5090565b61053291905b8082111561052e576000816000905550600101610516565b5090565b905600a165627a7a72305820e21a26a60cfc16d490ade5cd998dc68c4e9ec22568e7fe16cc9ffec8394589ce0029",
  "source": "pragma solidity ^0.4.25;\n\n// Modified Greeter contract. Based on example at https://www.ethereum.org/greeter.\n\ncontract Mortal {\n    /* Define variable owner of the type address*/\n    address owner;\n\n    /* this function is executed at initialization and sets the owner of the contract */\n    constructor () public {\n        owner = msg.sender;\n    }\n\n    /* Function to recover the funds on the contract */\n    function kill() public {\n        if (msg.sender == owner)\n            selfdestruct(owner);\n    }\n}\n\ncontract Greeter is Mortal {\n    /* define variable greeting of the type string */\n    string greeting;\n\n    /* this runs when the contract is executed */\n    constructor (string _greeting) public {\n        greeting = _greeting;\n    }\n\n    function newGreeting(string _greeting) public {\n        emit Modified(greeting, _greeting, greeting, _greeting);\n        greeting = _greeting;\n    }\n\n    /* main function */\n    function greet() public constant returns (string)  {\n        return greeting;\n    }\n\n    /* we include indexed events to demonstrate the difference that can be\n    captured versus non-indexed */\n    event Modified(\n            string indexed oldGreetingIdx, string indexed newGreetingIdx,\n            string oldGreeting, string newGreeting);\n}\n",
  "sourcePath": "/Users/andyshan/Documents/youbox-test/contracts/Greeter.sol",
  "compiler": {
    "name": "solc",
    "version": "0.4.25+commit.1dba1825.Emscripten.clang"
  },
  "schemaVersion": "1.0.0-alpha.33",
  "updatedAt": "2020-03-13T10:23:04.531Z",
  "devdoc": {
    "methods": {}
  },
  "userdoc": {
    "methods": {}
  }
}